{
  "contractName": "StudentManagmentSystem",
  "abi": [
    {
      "inputs": [],
      "stateMutability": "nonpayable",
      "type": "constructor"
    },
    {
      "inputs": [],
      "name": "stdCount",
      "outputs": [
        {
          "internalType": "uint256",
          "name": "",
          "type": "uint256"
        }
      ],
      "stateMutability": "view",
      "type": "function",
      "constant": true
    },
    {
      "inputs": [
        {
          "internalType": "uint256",
          "name": "",
          "type": "uint256"
        }
      ],
      "name": "stdRecords",
      "outputs": [
        {
          "internalType": "uint256",
          "name": "ID",
          "type": "uint256"
        },
        {
          "internalType": "string",
          "name": "name",
          "type": "string"
        },
        {
          "internalType": "uint256",
          "name": "regNumber",
          "type": "uint256"
        }
      ],
      "stateMutability": "view",
      "type": "function",
      "constant": true
    },
    {
      "inputs": [
        {
          "internalType": "uint256",
          "name": "_ID",
          "type": "uint256"
        },
        {
          "internalType": "string",
          "name": "_Name",
          "type": "string"
        },
        {
          "internalType": "uint256",
          "name": "_regNumber",
          "type": "uint256"
        }
      ],
      "name": "addStudent",
      "outputs": [],
      "stateMutability": "nonpayable",
      "type": "function"
    },
    {
      "inputs": [
        {
          "internalType": "uint256",
          "name": "_studentIndex",
          "type": "uint256"
        },
        {
          "internalType": "string",
          "name": "_newName",
          "type": "string"
        },
        {
          "internalType": "uint256",
          "name": "_newRegNumber",
          "type": "uint256"
        },
        {
          "internalType": "uint256",
          "name": "_newID",
          "type": "uint256"
        }
      ],
      "name": "editStudent",
      "outputs": [],
      "stateMutability": "nonpayable",
      "type": "function"
    },
    {
      "inputs": [
        {
          "internalType": "uint256",
          "name": "_studentIndex",
          "type": "uint256"
        }
      ],
      "name": "deleteStudent",
      "outputs": [],
      "stateMutability": "nonpayable",
      "type": "function"
    },
    {
      "inputs": [
        {
          "internalType": "uint256",
          "name": "_studentIndex",
          "type": "uint256"
        }
      ],
      "name": "viewStudent",
      "outputs": [
        {
          "internalType": "string",
          "name": "",
          "type": "string"
        },
        {
          "internalType": "uint256",
          "name": "",
          "type": "uint256"
        },
        {
          "internalType": "uint256",
          "name": "",
          "type": "uint256"
        }
      ],
      "stateMutability": "view",
      "type": "function",
      "constant": true
    }
  ],
  "bytecode": "0x6080604052600060015534801561001557600080fd5b50336000806101000a81548173ffffffffffffffffffffffffffffffffffffffff021916908373ffffffffffffffffffffffffffffffffffffffff160217905550610dc9806100656000396000f3fe608060405234801561001057600080fd5b50600436106100625760003560e01c80630c3361fb14610067578063420977d814610099578063a688cf58146100cb578063b645307d146100e7578063c1bea1db14610103578063fe615f2a1461011f575b600080fd5b610081600480360381019061007c9190610870565b61013d565b60405161009093929190610adc565b60405180910390f35b6100b360048036038101906100ae9190610870565b6101ef565b6040516100c293929190610a43565b60405180910390f35b6100e560048036038101906100e09190610900565b61032b565b005b61010160048036038101906100fc9190610870565b61041e565b005b61011d60048036038101906101189190610899565b6105a8565b005b61012761067d565b6040516101349190610ac1565b60405180910390f35b600260205280600052604060002060009150905080600001549080600101805461016690610c63565b80601f016020809104026020016040519081016040528092919081815260200182805461019290610c63565b80156101df5780601f106101b4576101008083540402835291602001916101df565b820191906000526020600020905b8154815290600101906020018083116101c257829003601f168201915b5050505050908060020154905083565b60606000806001841015801561020757506001548411155b610246576040517f08c379a000000000000000000000000000000000000000000000000000000000815260040161023d90610aa1565b60405180910390fd5b6000600260008681526020019081526020016000206040518060600160405290816000820154815260200160018201805461028090610c63565b80601f01602080910402602001604051908101604052809291908181526020018280546102ac90610c63565b80156102f95780601f106102ce576101008083540402835291602001916102f9565b820191906000526020600020905b8154815290600101906020018083116102dc57829003601f168201915b505050505081526020016002820154815250509050806020015181604001518260000151935093509350509193909250565b3373ffffffffffffffffffffffffffffffffffffffff1660008054906101000a900473ffffffffffffffffffffffffffffffffffffffff1673ffffffffffffffffffffffffffffffffffffffff161461038357600080fd5b6001841015801561039657506001548411155b6103d5576040517f08c379a00000000000000000000000000000000000000000000000000000000081526004016103cc90610a81565b60405180910390fd5b600060026000868152602001908152602001600020905083816001019080519060200190610404929190610683565b508281600201819055508181600001819055505050505050565b3373ffffffffffffffffffffffffffffffffffffffff1660008054906101000a900473ffffffffffffffffffffffffffffffffffffffff1673ffffffffffffffffffffffffffffffffffffffff161461047657600080fd5b6001811015801561048957506001548111155b6104c8576040517f08c379a00000000000000000000000000000000000000000000000000000000081526004016104bf90610aa1565b60405180910390fd5b60008190505b60015481101561055457600260006001836104e99190610b97565b81526020019081526020016000206002600083815260200190815260200160002060008201548160000155600182018160010190805461052890610c63565b610533929190610709565b5060028201548160020155905050808061054c90610c95565b9150506104ce565b506002600060015481526020019081526020016000206000808201600090556001820160006105839190610796565b60028201600090555050600160008154809291906105a090610c39565b919050555050565b3373ffffffffffffffffffffffffffffffffffffffff1660008054906101000a900473ffffffffffffffffffffffffffffffffffffffff1673ffffffffffffffffffffffffffffffffffffffff161461060057600080fd5b6001805461060e9190610b97565b60018190555060405180606001604052808481526020018381526020018281525060026000600154815260200190815260200160002060008201518160000155602082015181600101908051906020019061066a929190610683565b5060408201518160020155905050505050565b60015481565b82805461068f90610c63565b90600052602060002090601f0160209004810192826106b157600085556106f8565b82601f106106ca57805160ff19168380011785556106f8565b828001600101855582156106f8579182015b828111156106f75782518255916020019190600101906106dc565b5b50905061070591906107d6565b5090565b82805461071590610c63565b90600052602060002090601f0160209004810192826107375760008555610785565b82601f106107485780548555610785565b8280016001018555821561078557600052602060002091601f016020900482015b82811115610784578254825591600101919060010190610769565b5b50905061079291906107d6565b5090565b5080546107a290610c63565b6000825580601f106107b457506107d3565b601f0160209004906000526020600020908101906107d291906107d6565b5b50565b5b808211156107ef5760008160009055506001016107d7565b5090565b600061080661080184610b4b565b610b1a565b90508281526020810184848401111561081e57600080fd5b610829848285610bf7565b509392505050565b600082601f83011261084257600080fd5b81356108528482602086016107f3565b91505092915050565b60008135905061086a81610d7c565b92915050565b60006020828403121561088257600080fd5b60006108908482850161085b565b91505092915050565b6000806000606084860312156108ae57600080fd5b60006108bc8682870161085b565b935050602084013567ffffffffffffffff8111156108d957600080fd5b6108e586828701610831565b92505060406108f68682870161085b565b9150509250925092565b6000806000806080858703121561091657600080fd5b60006109248782880161085b565b945050602085013567ffffffffffffffff81111561094157600080fd5b61094d87828801610831565b935050604061095e8782880161085b565b925050606061096f8782880161085b565b91505092959194509250565b600061098682610b7b565b6109908185610b86565b93506109a0818560208601610c06565b6109a981610d6b565b840191505092915050565b60006109c1601583610b86565b91507f496e76616c69642073747564656e7420696e64657800000000000000000000006000830152602082019050919050565b6000610a01601683610b86565b91507f496e76616c69642073747564656e7420696e6465782e000000000000000000006000830152602082019050919050565b610a3d81610bed565b82525050565b60006060820190508181036000830152610a5d818661097b565b9050610a6c6020830185610a34565b610a796040830184610a34565b949350505050565b60006020820190508181036000830152610a9a816109b4565b9050919050565b60006020820190508181036000830152610aba816109f4565b9050919050565b6000602082019050610ad66000830184610a34565b92915050565b6000606082019050610af16000830186610a34565b8181036020830152610b03818561097b565b9050610b126040830184610a34565b949350505050565b6000604051905081810181811067ffffffffffffffff82111715610b4157610b40610d3c565b5b8060405250919050565b600067ffffffffffffffff821115610b6657610b65610d3c565b5b601f19601f8301169050602081019050919050565b600081519050919050565b600082825260208201905092915050565b6000610ba282610bed565b9150610bad83610bed565b9250827fffffffffffffffffffffffffffffffffffffffffffffffffffffffffffffffff03821115610be257610be1610cde565b5b828201905092915050565b6000819050919050565b82818337600083830152505050565b60005b83811015610c24578082015181840152602081019050610c09565b83811115610c33576000848401525b50505050565b6000610c4482610bed565b91506000821415610c5857610c57610cde565b5b600182039050919050565b60006002820490506001821680610c7b57607f821691505b60208210811415610c8f57610c8e610d0d565b5b50919050565b6000610ca082610bed565b91507fffffffffffffffffffffffffffffffffffffffffffffffffffffffffffffffff821415610cd357610cd2610cde565b5b600182019050919050565b7f4e487b7100000000000000000000000000000000000000000000000000000000600052601160045260246000fd5b7f4e487b7100000000000000000000000000000000000000000000000000000000600052602260045260246000fd5b7f4e487b7100000000000000000000000000000000000000000000000000000000600052604160045260246000fd5b6000601f19601f8301169050919050565b610d8581610bed565b8114610d9057600080fd5b5056fea2646970667358221220919d60829a576a3980d2d9b8509694d6459f5895919ae95eedd1ba9c666f991164736f6c63430008000033",
  "immutableReferences": {},
  "source": "// SPDX-License-Identifier: MIT\r\npragma solidity ^0.8.0;\r\n\r\ncontract StudentManagmentSystem {\r\n    struct Student {\r\n        uint256 ID;\r\n        string name;\r\n        uint256 regNumber;\r\n    }\r\n\r\n    address owner;\r\n    uint256 public stdCount = 0;\r\n    mapping(uint256 => Student) public stdRecords;\r\n\r\n    modifier onlyOwner() {\r\n        require(owner == msg.sender);\r\n        _;\r\n    }\r\n\r\n    constructor() {\r\n        owner = msg.sender;\r\n    }\r\n\r\n    function addStudent(\r\n        uint256 _ID,\r\n        string memory _Name,\r\n        uint256 _regNumber\r\n    ) public onlyOwner {\r\n        stdCount = stdCount + 1;\r\n\r\n        //Fetch the student details with the help of stdCount\r\n\r\n        stdRecords[stdCount] = Student(_ID, _Name, _regNumber);\r\n    }\r\n\r\n    //update Student\r\n\r\n    function editStudent(uint256 _studentIndex, string memory _newName, uint256 _newRegNumber,\r\n    uint256 _newID) public onlyOwner {\r\n        require(_studentIndex >=1 && _studentIndex <= stdCount,\"Invalid student index\");\r\n\r\n        Student storage student = stdRecords[_studentIndex];\r\n        student.name = _newName;\r\n        student.regNumber = _newRegNumber;\r\n        student.ID = _newID;\r\n    }\r\n\r\n    //function to delete a student record\r\n\r\n    function deleteStudent(uint256 _studentIndex) public onlyOwner{\r\n        require(_studentIndex >= 1 && _studentIndex <= stdCount, \"Invalid student index.\");\r\n\r\n        // Delete the student record and shift the remaining records\r\n        for (uint256 i = _studentIndex; i < stdCount; i++) {\r\n            stdRecords[i] = stdRecords[i + 1];\r\n        }\r\n\r\n         // Clear the last record and update the student count\r\n        delete stdRecords[stdCount];\r\n        stdCount--;\r\n\r\n    }\r\n\r\n    function viewStudent(uint256 _studentIndex) public view returns (string memory, uint256, uint256) {\r\n        require(_studentIndex >= 1 && _studentIndex <= stdCount, \"Invalid student index.\");\r\n        Student memory student = stdRecords[_studentIndex];\r\n        return (student.name, student.regNumber, student.ID);\r\n    }\r\n}\r\n",
  "sourcePath": "D:\\finalProjects\\StudentManagSolidy\\contracts\\Student.sol",
  "compiler": {
    "name": "solc",
    "version": "0.8.0+commit.c7dfd78e.Emscripten.clang"
  },
  "schemaVersion": "3.4.15",
  "updatedAt": "2023-10-26T16:23:13.095Z",
  "networkType": "ethereum",
  "devdoc": {
    "kind": "dev",
    "methods": {},
    "version": 1
  },
  "userdoc": {
    "kind": "user",
    "methods": {},
    "version": 1
  }
}